:020000040800F2
:10000000D83C0020C90200082D610008295A0008C8
:1000100029610008A1210008A96C00080000000067
:100020000000000000000000000000003102000895
:10003000A92300080000000075020008D96200082A
:10004000E3020008E3020008E3020008E3020008FC
:10005000E3020008E3020008E3020008E3020008EC
:10006000E3020008E3020008E30200080D23000891
:100070001D2300082D230008E30200083D2300088B
:100080004D2300085D230008E3020008E302000896
:10009000956C0008E3020008E3020008E302000890
:1000A000E302000891630008E3020008E30200088D
:1000B000A5630008E3020008E3020008E302000869
:1000C000E3020008E3020008E3020008E30200087C
:1000D000E3020008596C00086D6C0008816C000890
:1000E000E3020008E3020008E3020008E30200085C
:1000F000E3020008E3020008E3020008E30200084C
:10010000E3020008E3020008E3020008E30200083B
:10011000C1660008D1660008E3020008B963000860
:10012000E3020008E30200086D230008E302000870
:1001300000F002F800F06DF80AA090E8000C82448C
:100140008344AAF10107DA4501D100F062F8AFF269
:10015000090EBAE80F0013F0010F18BFFB1A43F0A5
:1001600001031847B4D80000D4D800000A444FF067
:10017000000C10F8013B13F0070408BF10F8014B06
:100180001D1108BF10F8015B641E05D010F8016B4B
:10019000641E01F8016BF9D113F0080F1EBF10F8AF
:1001A000014BAD1C0C1B09D16D1E58BF01F801CBD2
:1001B000FAD505E014F8016B01F8016B6D1EF9D555
:1001C0009142D6D37047000000230024002500266A
:1001D000103A28BF78C1FBD8520728BF30C148BFAA
:1001E0000B60704766290CF0AF82002070471FB586
:1001F00000F07AFC0400002000210BF015FA401CEE
:100200006060002000210BF0F9F9E0601FBD10B51F
:1002100010BD00F095FD1146FFF7E9FF09F056FA11
:1002200001F038F803B4FFF7F2FF03BC01F0A6FABF
:10023000224B19680868B0E8F00F80F30988BFF313
:100240006F8F4FF0000080F311884EF00D0E704755
:100250000000000006480068006880F3088862B665
:1002600061B6BFF34F8FBFF36F8F00DF00BF00BFDA
:1002700008ED00E0EFF30980BFF36F8F0F4B1A68B2
:1002800020E9F00F106008B54FF0500080F311889E
:10029000BFF34F8FBFF36F8F0AF002FB4FF00000E8
:1002A00080F31188BDE8084019680868B0E8F00FCD
:1002B00080F30988BFF36F8F704700BFB40600203A
:1002C000EFF3058070470000094880470948004760
:1002D000FEE7FEE7FEE7FEE7FEE7FEE7FEE7FEE7F6
:1002E000FEE7FEE704480549054A064B7047000053
:1002F0008F63000831010008D8360020D83C002068
:10030000D8380020D83800200FB41CB5074B06AAF7
:100310007B4469460090059800F059FB002069462F
:1003200000F068FB1CBC5DF814FB0000E106000057
:100330002DE9F0474FF0000A89460446C0F820A096
:100340002046E1688847002876D0252806D0D4E9E1
:1003500001219047206A401C2062F1E7E1682046B5
:1003600000258847C4F81CA006460027C4F818A03A
:100370002A2E09D0304609F026F938B304EB870855
:10038000303EC8F8186019E059F8041B204604EB09
:1003900087029161E1688847012F064618D1E0691C
:1003A000002820DA25F020051DE0D8F8180000EB21
:1003B000800006EB40003038C8F818002046E1689D
:1003C0008847064609F0FFF80028EED1012F0AD031
:1003D0002E2E08D12046E16888477F1C0646022F52
:1003E00045F02005C4DBA069002803DA404245F04F
:1003F0000105A061E80701D025F01005B6B1A6F10E
:100400004100192802D8203645F400654A46314695
:10041000204625604D46FFF7E5FE58B1012806D07D
:10042000ED1D25F0070000F1080989E704E005F15A
:10043000040985E730468AE7206ABDE8F087032A89
:1004400040F2308010F0030C00F0158011F8013BF1
:10045000BCF1020F624498BF11F801CB00F8013BD8
:1004600038BF11F8013BA2F1040298BF00F801CB9C
:1004700038BF00F8013B11F0030300F02580083A73
:10048000C0F0088051F8043B083A51F804CBA0E8CA
:100490000810F5E7121D5CBF51F8043B40F8043B1F
:1004A000AFF30080D20724BF11F8013B11F801CB54
:1004B00048BF11F8012B24BF00F8013B00F801CB25
:1004C00048BF00F8012B704710B5203AC0F00B80F0
:1004D000B1E81850203AA0E81850B1E81850A0E848
:1004E0001850BFF4F5AF5FEA027C24BFB1E81850A2
:1004F000A0E8185044BF18C918C0BDE810405FEA12
:10050000827C24BF51F8043B40F8043B08BF70478D
:10051000D20728BF31F8023B48BF11F8012B28BF92
:1005200020F8023B48BF00F8012B704702F0FF03A0
:1005300043EA032242EA024200F0B6BA4FF0000258
:1005400000B5134694469646203922BFA0E80C50C9
:10055000A0E80C50B1F12001BFF4F7AF090728BFA4
:10056000A0E80C5048BF0CC05DF804EB890028BF20
:1005700040F8042B08BF704748BF20F8022B11F049
:10058000804F18BF00F8012B7047704770477047C5
:1005900010B500F0ADFA006810BD10B5044600F0CB
:1005A000A7FA046010BD70472DE9FF4F0C461E46A8
:1005B0004FF0FF378BB0D2E90001DDF860800A9080
:1005C0008A46C1F30A5505B93D46002108464FF059
:1005D0000000BAF1000F00F4400005DA00EB8000E3
:1005E0004FF4400101EA50004FEA9059B9F1010F70
:1005F00000DDB9460A9850EA4A000ED044F6105081
:10060000A5F2FF3545432F14B8F1000F1ED07542F7
:10061000291E1EDDC9F100021CE0B8F1010F4FF0E8
:10062000000001D0302103E0F24305E02154401CDA
:10063000B042FBDB30460022002121540B99C1F867
:100640000880C1E900200FB0BDE8F08FBD1B6D1C14
:10065000DEE74A4600DA694206A800F0FBFA06AB7C
:1006600093E8070003AB83E8070050460A9901F0BE
:10067000ADF88DE80700A0F500501F3800900398F2
:10068000002D0ADD42F21F014A460844002303A957
:100690000390684601F058FB09E0A0F500504A4677
:1006A0001F38002303A90390684601F077FB8DE80B
:1006B00007000004000C03D04FF0FF30410800E0B9
:1006C0001046B8F1000F03D00022009215461EE03C
:1006D000751E05D400F010FA303262556D1EF9D542
:1006E000B3460122084302D000227F1C04E0207898
:1006F000302801D100227F1E002A099784D01DE0F6
:10070000112D07DA00F0F8F9303262556D1C50EA0D
:100710000102F5D1084302D00098C8B10EE00021D3
:10072000681E05E0235C625C63542254401E491C31
:100730008142F7DBAB46A81B401E0990002004F85D
:100740000B000B98099AC0F80880C0E9002B7AE7E3
:1007500011264FF0000857E72DE9F04F8846044670
:10076000D21D22F0070191B0D1E90001CDE90A01C3
:1007700008F070FE02460B98C00F01D02D2007E054
:100780002068810701D52B2002E0202101EAC0006A
:10079000032A099001D0072A05DB0346414620467B
:1007A00000F0F8F90BE12078800601D5E06900E05F
:1007B0000620B8F1650F814606D0B8F1660F18D053
:1007C000B8F1670F70D131E00020B9F1110F00903E
:1007D00001DB112301E009F101030AAA01A90CA818
:1007E000FFF7E2FEDDE90C70002609F10105834602
:1007F00047E001204B4600904FF000470AAA01A9AC
:100800000CA8FFF7D1FEDDE90DB00C995D4600267E
:1008100010B909F101000D18B9EB050003D4C0F1BE
:10082000FF3609F10105A5EB09002BE0B9F1010F35
:1008300001DA4FF001090020B9F1110F009048468C
:1008400001DD112300E003460AAA01A90CA8FFF765
:10085000ABFEDDE90C704D4600268346207800078C
:100860000AD4AB4500DA5D4601A8012D04DD41192B
:1008700011F8011C302907D04F4502DA17F1040F97
:1008800004DA012082460FE06D1EEEE7002F02DC45
:10089000ED1B3E4403E0781CA84200DD7D1CB81B24
:1008A00000F1010A4FF000472078000703D4AA4561
:1008B00001DB4FF0FF3A0021B7F1004F0DF1430883
:1008C0008DF8431024D002202B23002F01DA7F4221
:1008D0002D230A21021EA0F1010000DC5FB197FB6D
:1008E000F1FC97FBF1F201FB1C7C17460CF1300C7C
:1008F00008F801CDEEE7A8F1010003702188090591
:1009000001D5452100E06521A0F1010800F8011C96
:1009100009980FA9A1EB0807FF1D00B1012041199B
:1009200001EBEA70A1693844081A401EA0612078E2
:10093000C00602D42046AFF30080099828B1D4E95C
:1009400001219047206A401C20622078C00622D5F1
:100950002046AFF300801EE0002E04DBB34502DD2D
:1009600001A8805D00E03020D4E901219047206A91
:10097000401C2062761CAAF101005FEA000A0AD13D
:1009800000F0B2F8C0680168405CD4E901219047EA
:10099000206A401C2062281EA5F10105DCDC07E06E
:1009A000D4E9012118F8010B9047206A401C20620D
:1009B000381EA7F10107F3DC2046AFF300800320C7
:1009C00011B041E601694A1C02610878704700B520
:1009D0008FB0CDE901310021059105497944CDE978
:1009E000031011466846FFF7A3FC0FB000BD0000DE
:1009F000E5FFFFFF0A6802F8010B0A60704700007C
:100A00000FB4002300B589B00CA900910B99CB60FD
:100A1000214B7B440693214B7B44079304236FF0C7
:100A20000042CDE901321E4A7A446B4608920246E2
:100A300000200BF0EBFE09B05DF814FB70B5064624
:100A40004FF0FF3015460C46324686B00091CDE996
:100A5000010169460020049004A8FFF7D1FF024677
:100A60000498211825B108B1084600E02046286006
:100A7000049800280DD0002A02DD0098884208D092
:100A80003246081B69460094CDE9010404A8FFF72B
:100A9000B7FF06B070BD0000FF01000017020000A4
:100AA000570100004FF000020429C0F0128010F03E
:100AB000030C3FF445ADCCF1040CBCF1020F18BFA0
:100AC00000F8012BA8BF20F8022BA1EB0C01FFF7C7
:100AD00037BD5FEAC17C24BF00F8012B00F8012B71
:100AE00048BF00F8012B704700487047943600203B
:100AF000004870477436002030B5B0F10A024FEA62
:100B0000900E71F100034EEA817EB0EB0E0061EBB6
:100B100091014FEA101E4EEA017E10EB0E0041EBF0
:100B200011114FEA102E4EEA016E10EB0E0041EB50
:100B300011214FEA104E4EEA014E10EB0E0041EB30
:100B40001141401841F100014FEAD00040EA4170E4
:100B50004FEAD10110EB80054FEA810444EA90741A
:100B600044EB01046D1944EB0404521BA3414FF004
:100B7000000348BF0A3200D530BD401C41F10001DE
:100B800030BD10B5044600F001F90068005D00F0CA
:100B9000010010BD2DE9F0411F46044603260168FF
:100BA000072A01F4006004DB08B116A505E016A5CC
:100BB00003E008B115A500E015A521F010002060A4
:100BC000A069C01EA0610FB1401EA0612046AFF316
:100BD00000804FB1D4E9012138469047206A401C7B
:100BE0002062C01C206206E0206AFAE7D4E90121F5
:100BF00015F8010B9047761EF8D22046AFF300801F
:100C0000BDE8F0814E414E006E616E00494E4600D7
:100C1000696E6600426842B1016811F8013B23B178
:100C2000521EC0E90012184670470121C160881E9B
:100C3000704742685AB1C368016843B983688B4200
:100C400005D0491E521CC0E90012002070474FF029
:100C5000FF3070472DE9F047814616468AB0354887
:100C600078440DC88DE80D0032487844801C03ACF0
:100C70000DC884E80D0041F69B300844372190FBF5
:100C8000F1F290FBF1F5A5F1800501FB12041B3C8C
:100C900002D56442012000E00020DFF898A08046E1
:100CA0000027FA44AAF1BE0A0EE0E0070AD0324655
:100CB000684607EB470101230AEB810101F06EF85A
:100CC0008DE8070064107F1C002CEED1194F7F4483
:100CD000AE3F19E0E80715D007EB04100DF1180A34
:100CE00090E80E008AE80E00C068F04201D1981921
:100CF00008903246012306A903A801F04FF803AB80
:100D000083E807006D10641C002DE3D14FF0010350
:100D100032466946B8F1000F03A802D001F014F87A
:100D200001E001F03BF8C9E90001C9F808200AB068
:100D3000BDE8F08780CD0000004870477436002081
:100D40007546FFF7F9FFAE4605006946534620F0A9
:100D50000700854618B020B5FFF7C4FABDE820406B
:100D60004FF000064FF000074FF000084FF0000B67
:100D700021F00701AC46ACE8C009ACE8C009ACE81A
:100D8000C009ACE8C0098D467047000010B5FFF7F8
:100D9000ABFE001D10BD00BF91A800002DE9FF4F64
:100DA00006468BB00878FF2806D0491C2D2805D0B0
:100DB00000244FF0000908E000200CE00124F8E7CF
:100DC00009EB8903491C00EB43090878FF28F7D198
:100DD00014B1C9F100008146107800252C46AA46BE
:100DE00029462D2801D02B2804D1521C2D2813D0A0
:100DF000002082468B461078FF280FD04FF0000C61
:100E00000A21521CA5FB017804FB018105FB0C1192
:100E1000C5194BEB0104EEE70120EAE70021084683
:100E20004FF00000BAF1000F02D000EB8000400844
:100E3000C0F38157012F01DD4FF0FF370E9955EABE
:100E4000040009EB01080BD04FF0020918F5FA7FF6
:100E500016DA4FEACA70002F706008DD012007E043
:100E60004FEACA70C6E900B00FB0BDE8F08F0020AD
:100E70003060FFF73DFEC0F800901821084616E0EC
:100E8000B8F5FA7F18DD002F02DAF748784401E060
:100E9000F6487844D0E90010C6E9001040EACA706C
:100EA0007060FFF725FEC0F80090142108460FB0CF
:100EB000BDE8F04F0BF045BC002108464FF00000A4
:100EC000B8F10001099002DAC7F1000200E03A46E9
:100ED00001DAC8F1000106A8FFF7BCFE06AB93E8F3
:100EE000070003AB83E8070044F23E005BEA04011D
:100EF0000090584604D144F21E012C465D460091F4
:100F0000210C0904014306D10099240444EA154444
:100F10002D041039009104F07F41014306D100995E
:100F2000240244EA15642D020839009104F070414E
:100F3000014306D10099240144EA15742D01091FCB
:100F4000009104F04041014306D10099A40044EA15
:100F50009574AD00891E009104F00041084304D14E
:100F600000986D196441401E00904FF001033A460D
:100F70006846B8F1000FCDE9014503A902DD00F094
:100F800022FF01E000F0F5FEBAF1000F04460D4625
:100F900001D084F00044002108464FF00000099978
:100FA00040F2FF77484010F00C0F07D124F00040CA
:100FB000284303D0C4F30A50B84212D1FFF798FD7A
:100FC000C0F80090C4F30A50B8420AD1A848784447
:100FD000D0E90010C6E9001004F000410843706039
:100FE00042E7C6E900543FE72DE9FF4F1F464FF0A7
:100FF000000A4FF0FF38454691B0D7E90146CDF8D9
:101000003CA0FFF771FDC0680168405C1090B969B1
:1010100012986D1C8847396A814688470028F6D1A6
:10102000B9F1FF3F0AD0002E24F4D06411DDB9F1EC
:101030002B0F08D0B9F12D0F0BD102E0404615B0AF
:1010400013E744F48064B96912986D1C8847761ED2
:101050008146600504A901D52D2000E02B20002E3B
:1010600001F1010B0DF130088DF810003FDDB9F1F1
:10107000690F08D0B9F1490F05D0B9F16E0F02D050
:10108000B9F14E0F1CD13B4601A8009580E85002F3
:10109000DDE912126FF002000BF0BCFBC11CCED1D7
:1010A0000EE0B96912986D1C884781461398761E28
:1010B00044F4007405600F98401C002E0F9016DD5C
:1010C000B9F1300FEDD0B9F1780F02D0B9F1580F66
:1010D0000DD10F9801280AD13B46CDE90054DDE936
:1010E0001212001F02960BF093FBC11CA7D110999E
:1010F00089453ED144F0800406E01399681CAAF1AA
:10110000010A44F400740860B9696D1C1298761ED7
:10111000884730288146F0D02BE01099894505D1C9
:10112000200603D4761E44F0800418E0484608F0F8
:101130004AFA08B3761E0DF123018B4544F400747E
:1011400008D2A9F130000BF8010B200607D5AAF14F
:10115000010003E0200602D40AF101008246A00546
:1011600002D51399681C0860B96912986D1C8847EC
:101170008146002ED1DC53E0002E51DDB9F1650F20
:1011800002D0B9F1450F4BD1A00549D5B9696D1C05
:101190001298761E24F440748847002E81460CDD98
:1011A0002B2804D0B9F12D0F07D144F48074B9690C
:1011B00012986D1C8847761E8146E00501D52D21C9
:1011C00000E02B2108F8011BCDF8008021E0761EFD
:1011D0000DF13901884544F400740CD2A9F13000B6
:1011E00010F0FF0088F8000002D10099884509D965
:1011F00008F1010806E0E00501D51E4801E042F2D1
:101200000F708246B96912986D1C88478146139801
:101210000560002E04DD484608F0D5F90028D6D137
:10122000F96912988847FF2053468BF8000088F828
:10123000000000200A900B9004AA0CA90AA8FFF74E
:10124000ADFDA00502D46FF00100F8E614F0240F04
:1012500012D0E0071CD13868DDE90A12031D3B609B
:101260000068C0E9001213E0B0CB0000A2CB000080
:1012700066CA0000F1D8FFFF0AA9684608F032F9F3
:10128000E00705D13868009A011D396000680260E6
:101290002846D4E610B50446AFF300802046BDE8EA
:1012A0001040FEF7BFBF00004FF0013C50F8042B88
:1012B00051F8043B9A4221D1A2EB0C03934313EA69
:1012C000CC1317D150F8042B51F8043B9A4215D196
:1012D000A2EB0C03934313EACC130BD150F8042B6D
:1012E00051F8043B9A4209D1A2EB0C03934313EA51
:1012F000CC13DBD04FF00000704700BFD01A01BA0A
:10130000B1FA81F101F0180122FA01F0CB40C1F1EC
:101310002001DBB2C0B2C01A2CFA01F3D11A9143FA
:1013200011EAC311E6D170472DE9FF4F1F464FF078
:101330003C0987B04FF00042DDE9141001F10108CB
:10134000DDF858A002EA4050039000200590834643
:10135000054604460490B969461E08988847AAF1D4
:10136000010A0290BAF1000F3BDD02982E2815D039
:10137000102100F01CFA00282EDB4FF0010B05991C
:10138000014317D0B9F1000F0BDB4A46C11700F03B
:10139000FBF905430C43A9F1040905E00120049081
:1013A0000BE008B145F0010501200590049820B933
:1013B000361D02E0049800B1361FB969089808F19B
:1013C00001088847BBF1000FAAF1010A0290C9D0B9
:1013D0000999C1F80080C5E70298702808D0502804
:1013E00006D0F96908988847BBF1000F14D04FE088
:1013F000002002900120BBF1000F049009D0B969D0
:10140000089808F101088847AAF10109B9F1000F0D
:1014100007DCF969089888476FF001000BB0BDE858
:10142000F08F2B2804D02D280CD14FF0FF300490E2
:10143000B969089808F101088847A9F10109B9F1CB
:10144000000FE6DD411CE4D00A2100F0B0F90028CD
:10145000DFDB029908F1010801EB810100EB41009B
:101460000290B969089888470A2100F0A0F9099A02
:10147000A9F10109B9F1000FC2F8008001DD0028CF
:10148000E7DAF969089888470499029800FB016631
:1014900055EA040004D004F04041090002D006E0FF
:1014A000039898E0A40044EA9574AD00B61E04F0D9
:1014B0000041080002D16D196441761E159810F0A4
:1014C000240F03D04FF00B095C4803E04FF02809CC
:1014D0006FF07D008246564507DAAAEB0601894483
:1014E000B9F1410F01DD4FF0410901200021A9F1BF
:1014F000010200F049F9024628400B46214008430A
:1015000001D0012100E00021501E029143F1FF3182
:1015100028402140084301D0012000E0002002992A
:10152000834651EA0B014FD0002108464FF00000DE
:10153000039900F4400039B100EB80004FF4400102
:1015400000EBD07001EA60008015012802DD4FF049
:10155000FF3000E013D0401C36D0029860B3BBF1DE
:10156000000F0CD14A460120002100F00DF928405F
:101570002140084301D0012000E00020E0B101201B
:101580004A46002100F000F9034640190A4661412D
:101590002D1A8C4111D3B9F1400F09DD159810F0C7
:1015A000240F02D0AAF1340603E0AAF1170600E0E6
:1015B000761C00254FF0004406E05B1E42F1FF322E
:1015C00020EA030521EA0204CAF10100B04206DA6A
:1015D0001B49039808430190002000900EE0039AF5
:1015E000C4F3D321E80A0A43164940EA44500A43A7
:1015F0003146CDE90002684607F0DAFF159810F091
:10160000240F0BD01598C00715D13868DDE90012FA
:10161000031D3B600068C0E900120CE002A86946A7
:1016200007F060FF1598C00705D13868029A011DC0
:101630003960006802604046F0E6000002FCFFFFEF
:101640000000F07F0000F03F2DE9FF4F92461D465D
:1016500085B04FF00041DDE9124BDDE914727F1EC9
:1016600001EA4B50414940F0FF4940EA010800219E
:1016700022F020004928049102D04E2828D04CE0C6
:101680003BA0012607C88DE80700A9690698641CDD
:1016900088477F1E014606D41DF8060018B121F0C8
:1016A000200181420BD0E96906988847032E34D087
:1016B000082E32D06FF0010009B0BDE8F08F761C23
:1016C000032E01D0082EE0D1601CCAF80000DCE730
:1016D000A9690698641C88477F1E2AD420F0200040
:1016E000412826D1A9690698641C88477F1E20D40A
:1016F00020F020004E281CD1A9690698641C884758
:101700007F1E48F4002849F48009CAF8004001D43B
:10171000282806D0E969069888475FEACB7012D07E
:1017200022E0A9690698641C88477F1E01D400281E
:1017300003DAE96906988847BCE72928F1D1641CD7
:10174000CAF80040E9E71BF0240F07D02868049985
:10175000031D2B600068C0E9001805E02868021D21
:101760002A600068C0F800902046A5E70000F07FDE
:10177000494E46494E49545900000000014918207D
:10178000ABBEFEE726000200B2F120030AD5C2F18B
:10179000200301FA02F120FA03F300FA02F041EA11
:1017A0000301704700FA03F14FF0000070473A2838
:1017B00000D2303820F02002412A01D3A2F13700B4
:1017C000884201D34FF0FF30704770475FEA400C0A
:1017D00008BF91F0000F4FEA8C234FEAC12243EA81
:1017E00051514FEA1C5018BF00F5F0404FEA30004D
:1017F00018BF41F000415FEA6C5C00F02980BCF149
:10180000FF3F08BF40F080407047130C06BF120432
:101810004FF0100C4FF0000C130E04BF12020CF12D
:10182000080C130F04BF12010CF1040C930F04BF3A
:1018300092000CF1020CD30F04BF52000CF1010C0A
:1018400011464FF00002A0F11F00A0EB0C00704702
:1018500011F0004F08BF704731F000413FF4D5AFA1
:101860000B0C06BF09044FF0100C4FF0000C0B0ED0
:1018700004BF09020CF1080C0B0F04BF09010CF1A5
:10188000040C8B0F04BF89000CF1020CCB0F04BFBA
:1018900049000CF1010CCCF12003A0EB0C0022FA62
:1018A00003F302FA0CF241EA030100F10100704770
:1018B00020F07F4C80EA030023F07F47ACEB070366
:1018C00003F57C5300F0004003F1FF032DE980494C
:1018D0004FEA154B09B44FEA144325EA0B4E24EAAC
:1018E00003480FF2042606EB132749083E785FEA07
:1018F000320203FB0667C7F5000707FB06F64FEA4F
:1019000054374FEAD64606F1020607FB066CCCF1C7
:10191000005C4FEA1C472CEA074C07FB06F40CFB63
:1019200006F504EB15464FEA961634BF00204FF03B
:1019300000404FEAD13706FB07FC4FEA1C4C0CFB7A
:101940000BF7D21B03FB0CF761EB07010CFB0EF747
:10195000B0EB074072EB17420CFB08F734BFA2EB69
:101960000742B2EB074261EB17414FEA0C444FEAE2
:10197000910706FB07FC4FEA1C4C0CFB0BF7B0EB86
:10198000C74072EB573203FB0CF734BFA2EBC742E0
:10199000B2EBC74261EB57310CFB0EF7B0EBC7005F
:1019A00072EB57720CFB08F734BFA2EBC702B2EB25
:1019B000C70261EB5771039F4FEA816141EA9211BF
:1019C00004EBCC044FEAD1374FEA826206FB07FCF6
:1019D00042EA90124FEA80604FEA1C4C0CFB0BF776
:1019E000D21B03FB0CF761EB07010CFB0EF7B0EB0E
:1019F000074072EB17420CFB08F734BFA2EB07421B
:101A0000B2EB074261EB17414FEA8C554FEA910761
:101A100004EB9C2406FB07FC4FEA1C4C0CFB0BF769
:101A2000B0EBC74072EB573203FB0CF734BFA2EBAD
:101A3000C742B2EBC74261EB57310CFB0EF7B0EB7C
:101A4000C70072EB57720CFB08F734BFA2EBC7025A
:101A5000B2EBC70261EB577115EB4C254FEA816180
:101A600041EA92114FEA82624FEAD13742EA90127C
:101A700006FB07FC44F100044FEA80604FEA1C4C6F
:101A80000CFB0BF7D21B03FB0CF761EB07010CFB04
:101A90000EF7B0EB074072EB17420CFB08F734BFB0
:101AA000A2EB0742B2EB074261EB174115EB1C15A5
:101AB0004FEA813141EA92414FEA823242EA904252
:101AC0004FEA80304FEA0C7644F1000448EA0343C1
:101AD0004EEA0B484FF0000EB2EB080C71EB030717
:101AE00024BF624639464EEB0E0E4FF0000B001835
:101AF000524149414BEB0B0BB2EB080C71EB030766
:101B00007BF1000B24BF624639464EEB0E0E4FF0C0
:101B1000000B0018524149414BEB0B0BB2EB080C88
:101B200071EB03077BF1000B24BF624639464EEB95
:101B30000E0E51EA020718BF46F0010616EB0E76AC
:101B400055F1000254F1000103D5BDE88901BDE85B
:101B50000088BDE88901BDE80048B619524141EB53
:101B60000101A3F10103704780807F7E7D7C7B7A39
:101B70007978777676757473727171706F6E6E6D39
:101B80006C6C6B6A6A6968686766666564646363DF
:101B900062616160605F5F5E5E5D5D5C5C5B5B5A65
:101BA0005A595958585757565655555554545353D2
:101BB00052525251515050504F4F4F4E4E4D4D4D2D
:101BC0004C4C4C4B4B4B4A4A4A4949494848484778
:101BD00047474746464645454544444444434343B6
:101BE000434242424241414146EA0646A3F5705310
:101BF0004FEA164646EA42564FEAD22242EA41529C
:101C000010B54FEAD121A3F1010300F02FF820F025
:101C1000004000F1020C00F0004701EB00501146BB
:101C2000BCF5006F40EA070000D210BDBAF1000F0A
:101C30000AD01CB503B44FF004004FF004014FF07C
:101C400000000FBCBDE810404FF00001BBF1010FD8
:101C5000B9BF04484FF0FF310348002140EA0700B4
:101C600010BD00BFFFFFEF7F0000F07F002B9C4600
:101C700030D477002BD01CB54FEA370703B44FF0B0
:101C800010004FF01001BAF1000F06D0BCF1000FA8
:101C9000DCBF40F0080040F008014FF000000FBC2E
:101CA000BDE810400BF1010BBBF1010F08BF5FEA6B
:101CB000170722BF12F1010211F101014FF000419B
:101CC00043F1000300F0004043EA00007047F9D3FD
:101CD0005708D0E746EA064613F1400F4FEA16468A
:101CE0001FDD13F1200FDFBF16430A46002120330A
:101CF0005B42BED0C3F1200746EA064602FA07F768
:101D00004FEA164646EA0706C3F1200722FA03F215
:101D100001FA07F721FA03F14FF0000342EA070244
:101D2000A7E746EA020646EA06464FEA164646EAAC
:101D30000106BCBF46EA0646360C4FF000034FF0E2
:101D400000024FF0000194E72DE9804C9A4693463B
:101D500070B491E8380007C831EA400C48BF34EA53
:101D6000430C03D5FFF7A4FDFFF780FFF0BCBDE8EF
:101D7000008C2DE9804C9A46934670B491E8380067
:101D800007C831EA400C48BF34EA430C03D5FFF7DB
:101D90008FFDFFF729FFF0BCBDE8008C2DE9804CDA
:101DA0009A46934670B491E8380007C810F0804F07
:101DB00008BF13F0804F03D100F01AF8FFF756FF69
:101DC000F0BCBDE8008C2DE9804C9A46934670B477
:101DD00091E8380007C810F0804F08BF13F0804F1B
:101DE00003D100F005F8FFF7FFFEF0BCBDE8008C62
:101DF00020F07F4780EA030023F07F4C07EB0C03C1
:101E0000A3F57C5300F00040A3F1FE0392F0000F15
:101E100000F0B38095F0000F00F077802DE90149C4
:101E20004FEA11404FEA144621EA004800FB06FC45
:101E300024EA064708FB06F607FB08F800FB07F74D
:101E400018EB06484CEB164C4FEA124B18EB0748C0
:101E50004FEA15464CEB174022EA0B4E0BFB06FCF3
:101E600025EA06470EFB06F607FB0EFE0BFB07F7FF
:101E70001EEB064E4CEB164C4FF000061EEB074EC9
:101E80004CEB174B18EB0B0840F1000018EB0E0B56
:101E900058EB000840F100008F1A4FF000013CBFE2
:101EA000C943661B14BFB5EB040C00213CBFC943FA
:101EB000F61B4FEA17444EEA8E0E27EA04454FEA16
:101EC0001C4704FB07622CEA074C05FB07F70CFBD9
:101ED00005F604FB0CFC16EB074642EB174216EB2B
:101EE0000C4642EB1C421BEB060658EB020241413A
:101EF00046EA9E0601D5BDE80189B619524141EB7B
:101F00000101A3F10103BDE801894FEA14454FEA3D
:101F1000114724EA054621EA074C05FB07F406FBB6
:101F200007F70CFB06F105FB0CFC11EB074144EB3A
:101F300017444FEA124711EB0C4144EB1C4422EAD0
:101F4000074C05FB07F206FB07F70CFB06F605FB43
:101F50000CFC16EB074642EB174216EB0C4642EB25
:101F60001C456A1854F1000148BF7047B619524128
:101F700041EB0101A3F10103704795F0000F37D049
:101F80004FEA11424FEA144721EA024624EA074C7D
:101F900002FB07F106FB07F70CFB06F402FB0CFC47
:101FA00014EB074441EB17414FEA154714EB0C447F
:101FB00041EB1C4125EA074C02FB07F506FB07F73E
:101FC0000CFB06F602FB0CFC16EB074645EB17452F
:101FD00016EB0C4645EB1C42121951F1000148BFAB
:101FE0007047B619524141EB0101A3F1010370475B
:101FF0004FEA14454FEA114724EA054621EA074C07
:1020000005FB07F106FB07F70CFB06F24FF0000695
:1020100005FB0CFC12EB074241EB174112EB0C42A3
:1020200051EB1C4148BF7047921841EB0101A3F1ED
:102030000103704770B5044600252068806800F0F1
:10204000010018B32068806820F0010021688860D2
:1020500001F062FE054613E001F05EFE401B02281F
:102060000ED92068806800F0010048B1A06A40F0F5
:102070001000A062E06A40F00100E062012070BD43
:102080002068806800F001000028E5D10020F6E714
:1020900070B505466C6AA06A00F05000E0B9A06A0D
:1020A00040F40070A0622068806800F46020B0F501
:1020B000602F0DD1207B58B9A06A20F48070A062F7
:1020C000A06A00F4805018B9A06A40F00100A06234
:1020D000204600F0ABFA03E0206A016B28468847EF
:1020E00070BD70B505466C6AA06A40F04000A06201
:1020F000E06A40F00400E062204600F099FA70BD0A
:1021000070B50446656A284600F091FA70BD00007B
:1021100038B504460025002000902068806800F053
:10212000010078BB2068806840F001002168886069
:10213000194800681949B0FBF1F0009002E00098DE
:10214000401E009000980028F9D101F0E5FD0546F9
:1021500019E001F0E1FD401B022814D920688068D5
:1021600000F0010078B9A06A40F01000A062E06AB7
:1021700040F00100E06200BF002084F8240000BFAE
:10218000012038BD05E02068806800F001000028CB
:10219000DFD00020F5E700000C00002040420F00D7
:1021A00000BFFEE708B56B46054AA2F121010548CC
:1021B00000F033FC08B9012008BD0020FCE7000056
:1021C000790F0020A00700202DE9F04104460D46BC
:1021D00016461F46DDF818801148C46104620021CC
:1021E000416281620821C162280A0D4981F83D00DF
:1021F000084680F83E50310A80F83F1080F8406071
:10220000390A80F8411080F842704FEA182180F8AE
:10221000431080F84480FFF7C5FFBDE8F08100005F
:102220003C0F00202DE9F04105460C460026681EB3
:10223000C11700EB9171C1F38707154840EA0720E9
:1022400040EA0506B00C1349C8610846066204213D
:102250004162002181620821C162200E0D4981F88E
:102260003D00210C0B4880F83E10210A80F83F10F9
:1022700080F84040002180F8411080F8421080F83A
:10228000431080F84410FFF78DFFBDE8F081000097
:10229000008010083C0F00202DE9F04707460C464F
:1022A00015461E46DDF820804FF00009154840EA2B
:1022B00007294FEA99401449C8610846C0F82090A0
:1022C00004214162002181620821C162200A0E4975
:1022D00081F83D00084680F83E40290A80F83F100A
:1022E00080F84050310A80F8411080F842604FEA8F
:1022F000182180F8431080F84480FFF753FFBDE8B1
:10230000F0870000008004083C0F002010B5024850
:1023100001F0F4F810BD00005C07002010B5024881
:1023200001F0ECF810BD0000FC0B002010B50248D5
:1023300001F0E4F810BD0000B80B002010B5024811
:1023400001F0DCF810BD0000EC0A002010B50248D6
:1023500001F0D4F810BD0000300B002010B5024889
:1023600001F0CCF810BD0000740B002010B502483D
:1023700001F0C4F810BD0000A80A002030B590F8A4
:1023800040500124AC40C56B6C60046863604468D5
:10239000102C04D10468A2600468E16003E00468C2
:1023A000A1600468E26030BD704772B600BFFEE70E
:1023B000F8B5044600260020009000BF94F82400E1
:1023C000012801D10220F8BD012084F8240000BFBB
:1023D0002046FFF72FFE06462046FFF799FE0646E9
:1023E000002E69D1A06A20F4885040F00200A0625B
:1023F000022001F0A3FD34490968B1FBF0F0400070
:10240000009002E00098401E009000980028F9D14A
:102410002068806840F008002168886001F07CFC3A
:10242000054616E001F078FC401B0A2811D9206807
:10243000806800F0080060B1A06A20F0020040F05F
:102440001000A06200BF002084F8240000BF01201B
:10245000B9E72068806800F008000028E2D1206811
:10246000806840F004002168886001F055FC054652
:1024700016E001F051FC401B0A2811D92068806841
:1024800000F0040060B1A06A20F0020040F01000EB
:10249000A06200BF002084F8240000BF012092E762
:1024A0002068806800F004000028E2D1A06A20F0D3
:1024B000020040F00100A06200BF002084F8240068
:1024C00000BF30467FE700000C00002038B5024610
:1024D00000230020009000BF92F82400012801D1C1
:1024E000022038BD012082F8240000BF4868072878
:1024F00012D21068406B0C79641E04EB84051F2413
:10250000AC40A0430D796D1E05EB85050C68AC4011
:1025100020431468606327E048680D2812D21068D1
:10252000006B0C79E41F04EB84051F24AC40A0432E
:102530000D79ED1F05EB85050C68AC402043146850
:10254000206311E01068C06A0C790D3C04EB84052F
:102550001F24AC40A0430D790D3D05EB85050C68AB
:10256000AC4020431468E06208680A2812D310685F
:10257000C0680C780A3C04EB44050724AC40A04337
:102580000D780A3D05EB45058C68AC402043146886
:10259000E0600FE0106800690C7804EB4405072444
:1025A000AC40A0430D7805EB45058C68AC4020435A
:1025B000146820610868102802D00868112827D103
:1025C000174C1068A0421ED11068806800F400000B
:1025D000F0B91068806840F400001468A0600868D2
:1025E000102815D10F4800680F4CB0FBF4F000EB39
:1025F00080004000009002E00098401E009000988B
:102600000028F9D104E0906A40F020009062012394
:1026100000BF002082F8240000BF184661E70000D8
:10262000002401400C00002040420F00704770471A
:10263000704700002DE9F0410446002700250026E0
:10264000A84614B90120BDE8F081A06810B1207D32
:1026500000B100BFA06A30B90020E06284F8240015
:10266000204600F097F82046FFF7E4FC0746A06AF2
:1026700000F01000002873D1002F7ED1A06A20F452
:10268000885040F00200A0623F4AD4E90001904225
:1026900008D1E069B0F5402F02D14FF4002002E0EC
:1026A000E06900E0E0690143207B41EA4000064325
:1026B000A068B0F5807F02D0A068012802D14FF455
:1026C000807000E000200543207D012811D1207B8F
:1026D00038B9A069401E4FF4006141EA403005431B
:1026E00007E0A06A40F02000A062E06A40F001002C
:1026F000E0622068406820F469402843216848600F
:102700002068806821490840304321688860A068BB
:10271000B0F5807F02D0A068012802D14FF480700C
:1027200000E00020B0F5807F03D1208A401E4FEAF0
:1027300000582068C06A20F4700040EA0800216850
:10274000C8622068806812490840B04209D1002060
:10275000E062A06A20F0020040F00100A06211E0F7
:102760000BE0A06A20F0020040F01000A062E06AD6
:1027700040F00100E062012704E0A06A40F0100090
:10278000A062012738465EE7003C0140FDF7E1FF0B
:10279000FE0E1FFF10B586B0044600200290039085
:1027A000049005902C492068884252D100BF2B48E4
:1027B000806940F40070294988610846806900F406
:1027C0000070019000BF00BF00BF0846806940F064
:1027D000100088610846806900F01000019000BF79
:1027E00000BF00BF0846806940F0080088610846C5
:1027F000806900F00800019000BF00BF3020029007
:102800000320039002A9164801F0D8F80320029093
:10281000039002A9134801F0D1F813481349086046
:10282000002048600021114881608021C16049007A
:10283000016189004161202181610021C16101F0B4
:1028400029F808B1FFF7B1FD00BF084820624462D3
:1028500000BF06B010BD000000240140001002407F
:1028600000100140000C0140080002405C070020FD
:102870002DE9F04104460D461646002757492068C9
:10288000884203D056492068884205D15348001D2C
:10289000006800F4702000E0002000287ED100BF16
:1028A00094F82400012802D10220BDE8F081012023
:1028B00084F8240000BF2046FFF72AFC0746002FBB
:1028C0006DD1A06A40F60161884340F48070A06237
:1028D00043492068884209D14048001D006800F43F
:1028E000702008B9012002E0002000E0012078B14A
:1028F000A06A20F48010A0622068406800F4806024
:1029000000B3A06A20F4005040F48050A06219E0A7
:10291000A06A40F48010A06230492068884203D049
:102920002F492068884205D12C48001D006800F41A
:10293000806000E0002028B1A06A20F4005040F43C
:102940008050A062A06A00F4805020B1E06A20F0BC
:102950000600E06201E00020E06200BF002084F891
:10296000240000BF1F48216A88621F48216AC8628C
:102970001E48216A08636FF0020021680860206821
:10298000806840F4807021688860226802F14C0100
:1029900033462A46206A00F0C3FF01E01AE014E043
:1029A0002068806800F46020B0F5602F06D12068B0
:1029B000806840F4A000216888600CE0206880688E
:1029C00040F480102168886005E000BF002084F892
:1029D000240000E00127384667E70000002401409A
:1029E000002801409120000801210008E320000890
:1029F00010B5024692F82030012B01D0022B06D1EF
:102A000010684069084314686061002010BD506A76
:102A100040F4802050620120F8E7F0B504460D46EE
:102A20001E4694F8207020688368A86800B900E00A
:102A300000BF012F01D0022F7DD103F0806030B99B
:102A400003F0006018B903F0805000287ED0C3F373
:102A50000161012088403060A86860B9B5F800C005
:102A6000E86840EA4C5C206800F5C07000EB01109B
:102A7000C0F800C00FE0D5E901C040EACC00D5F8AD
:102A80000CC040EA0C00D4F800C00CF5C07C0CEB84
:102A9000011CCCF80000D5F810C0206800F5C0700B
:102AA00000EB0110C0F804C0287D01280ED1206879
:102AB00000F5C07000EB0110406840F4807C206895
:102AC00000F5C07000EB0110C0F804C0D07900061A
:102AD00092F806C040EA0C4092F805C040EA0C208B
:102AE00092F804C040EA0C00D4F800C00CF5C07C99
:102AF0000CEB011CCCF80C00D078000692F802C058
:102B000040EA0C4092F801C040EA0C2092F800C064
:102B100040EA0C00D4F800C00CF5C07C0CEB011CA2
:102B2000CCF80800206800F5C07000EB01100068C8
:102B300040F0010C01E00FE008E0206800F5C070F3
:102B400000EB0110C0F800C00020F0BD606A40F446
:102B5000001060620120F8E7606A40F48020606243
:102B60000120F2E7F0B504460A46216894F82050A7
:102B7000012D01D0022D74D1D1F8000240F00100E6
:102B8000C1F80002107D00F01F06012000FA06F3D4
:102B9000D1F81C029843C1F81C02D069C8B9D1F819
:102BA0000C029843C1F80C02908880B2968940EAE2
:102BB000064601F51070576940F83760108880B2FA
:102BC000168940EA064601F51070576900EBC70008
:102BD0004660D069012819D1D1F80C021843C1F818
:102BE0000C02908880B2168840EA064601F5107003
:102BF000576940F83760908980B2168940EA0646E6
:102C000001F51070576900EBC7004660906928B95C
:102C1000D1F804029843C1F8040204E0D1F8040298
:102C20001843C1F80402106928B9D1F81402984376
:102C3000C1F8140204E0D1F814021843C1F81402D8
:102C4000106A012804D1D1F81C021843C1F81C02F3
:102C5000D1F8000220F00100C1F800020020F0BD10
:102C6000FFE7606A40F4802060620120F7E7704768
:102C700070B5044694F82050012D01D0022D7DD16D
:102C800051B92068C06800F0030080B9606A40F460
:102C900000106062012070BD2068006900F0030030
:102CA00028B9606A40F4001060620120F3E72068F0
:102CB00000F5D87000EB0110006800F0040090608F
:102CC000906840B9206800F5D87000EB01100068EA
:102CD000400D106007E0206800F5D87000EB01108F
:102CE0000068C0085060206800F5D87000EB011043
:102CF000006800F00200D060206800F5D87000EB9A
:102D00000110406800F00F00082802D3082010616D
:102D100008E0206800F5D87000EB0110406800F072
:102D20000F001061206800F5D87000EB01104068BA
:102D300000F47F40000A9061206800F5D87000EB35
:102D400001104068000C5061206800F5D87000EB5D
:102D5000011080681870206800F5D87000EB011031
:102D6000806800F47F40000A5870206800F5D87031
:102D700000EB0110806800F47F0000E03CE0000CF4
:102D80009870206800F5D87000EB01108068000E84
:102D9000D870206800F5D87000EB0110C068187179
:102DA000206800F5D87000EB0110C06800F47F4087
:102DB000000A5871206800F5D87000EB0110C06857
:102DC00000F47F00000C9871206800F5D87000EBCB
:102DD0000110C068000ED87131B92068C06840F099
:102DE00020002668F06005E02068006940F02000BF
:102DF0002668306100204EE7606A40F480206062FF
:102E0000012048E72DE9F05F044600252068466967
:102E10002068D0F80490206887682068D0F80CA05B
:102E20002068D0F810B02068D0F8188006F00100B3
:102E3000002855D007F00100C0B10120216888604A
:102E400007F0020018B1204600F04CFA0EE007F03F
:102E5000040010B145F4006508E007F0080010B167
:102E600045F4805502E0204600F03AFA07F48070FD
:102E7000C8B14FF480702168886007F4007018B101
:102E8000204600F038FA0EE007F4806010B145F4F7
:102E9000005508E007F4006010B145F4804502E0F9
:102EA000204600F027FA07F48030C8B14FF4803094
:102EB0002168886007F4003018B1204600F01DFA40
:102EC0000EE007F4802010B145F4004508E007F457
:102ED000002010B145F4803502E0204600F00CFAE5
:102EE00006F0080038B10AF0100020B145F4007572
:102EF00010202168C86006F0040040B10AF0080004
:102F000028B108202168C860204600F0B5F906F015
:102F1000020038B12068C06800F0030010B12046FC
:102F200000F0ABF906F0400038B10BF0100020B112
:102F300045F4806510202168086106F0200040B14A
:102F40000BF0080028B1082021680861204600F035
:102F500095F906F0100038B12068006900F0030010
:102F600010B1204600F08BF906F4003040B109F0B2
:102F7000100028B1102021684860204600F080F938
:102F800006F4803040B109F0080028B1082021681B
:102F90004860204600F0B2F906F4004088B309F01A
:102FA000040078B306F4807020B108F0010008B185
:102FB00045F0010506F4007020B108F0020008B1E8
:102FC00045F0020506F4806020B108F0040008B165
:102FD00045F0040506F40060A0B108F0700088B167
:102FE00008F07000402817D006DC10280BD02028ED
:102FF0000CD0302819D10CE0502810D0602814D102
:1030000010E01DE019E045F008050FE045F010055F
:103010000CE045F0200509E045F0400506E045F0EC
:10302000800503E045F4807500E000BF00BF206824
:10303000806920F070002168886104202168486060
:103040002DB1606A284360622046FFF710FEBDE89C
:10305000F09F70B504460CB9012070BD94F82000B3
:1030600010B9204600F0B0F82068006840F0010078
:103070002168086000F050FE05460DE000F04CFEAF
:10308000401B0A2808D9606A40F4003060620520BD
:1030900084F820000120E0E72068406800F001008B
:1030A0000028EBD02068006820F00200216808604A
:1030B00000F032FE05460DE000F02EFE401B0A280F
:1030C00008D9606A40F400306062052084F820006E
:1030D0000120C2E72068406800F002000028EBD120
:1030E000207E012806D12068006840F08000216819
:1030F000086005E02068006820F080002168086012
:10310000607E012806D12068006840F040002168F8
:10311000086005E02068006820F040002168086031
:10312000A07E012806D12068006840F020002168B8
:10313000086005E02068006820F020002168086031
:10314000E07E012806D12068006820F01000216888
:10315000086005E02068006840F010002168086001
:10316000207F012806D12068006840F0080021680F
:10317000086005E02068006820F008002168086009
:10318000607F012806D12068006840F004002168B3
:10319000086005E02068006820F0040021680860ED
:1031A000D4E9020108432169084361690843616861
:1031B000491E08432168C86100206062012084F82C
:1031C0002000002049E7000010B586B0044600202A
:1031D000029003900490059023492068884241D1D1
:1031E00000BF2248C06940F000702049C86108460D
:1031F000C06900F00070019000BF00BF00BF08462A
:10320000806940F0080088610846806900F0080085
:10321000019000BF00BF8815029000200390049029
:1032200002A9134800F0CAFB4FF40070029002207C
:1032300003900320059002A90D4800F0BFFB00BFDA
:103240000C49486820F4C04040F0E06040F4804001
:10325000486000BF00220621142000F01DFE14204B
:1032600000F00AFE06B010BD0064004000100240ED
:10327000000C0140000001407047704770477047E4
:10328000704770B5044694F82000012822D102202E
:1032900084F820002068006820F0010021680860A0
:1032A00000F03AFD05460DE000F036FD401B0A280F
:1032B00008D9606A40F400306062052084F820007C
:1032C000012070BD2068406800F001000028EBD1AB
:1032D0006062F6E7606A40F4002060620120F0E777
:1032E000704700000121024A82F845107047000033
:1032F0003C0F002070477047704770477047014689
:10330000002291F82100022808D00420886300BF21
:10331000002081F8200000BF012070470868006885
:1033200020F00E000B6818600868006820F00100AB
:103330000B68186091F8403001209840CB6B5860C2
:10334000012081F8210000BF002081F8200000BF8B
:103350001046E2E770B50446002594F821000228E3
:1033600003D00420A0630125C1E02068006820F09C
:103370000E00216808602068006820F001002168C4
:1033800008605C492068884252D95A4978392068D7
:10339000884201D1012047E05649643920688842BB
:1033A00001D1102040E0534950392068884201D1B2
:1033B000801539E04F493C392068884201D180149A
:1033C00032E04C4928392068884202D14FF48030DD
:1033D0002AE0484914392068884202D14FF480100D
:1033E00022E044492068884201D140041CE042495F
:1033F0002068884201D1012016E03F49143120683D
:10340000884201D110200FE03B49283120688842D2
:1034100001D1801508E038493C312068884201D14B
:10342000801401E04FF480303349091F086051E0F7
:10343000304978392068884201D1012047E02D4980
:1034400064392068884201D1102040E02949503970
:103450002068884201D1801539E026493C3920682E
:10346000884201D1801432E02249283920688842FC
:1034700002D14FF480302AE01E4914392068884276
:1034800002D14FF4801022E01A492068884201D10D
:1034900040041CE018492068884201D1012016E050
:1034A000154914312068884201D110200FE01249DB
:1034B00028312068884201D1801508E00E493C314E
:1034C0002068884201D1801401E04FF4803009491E
:1034D00080394860012084F8210000BF002084F872
:1034E000200000BF606B10B12046616B8847284602
:1034F00070BD0000800002400804024070B5044620
:10350000E06B05682068066894F840100420884045
:103510002840002875D006F004000028FAD0206862
:10352000006800F0200028B92068006820F004003E
:1035300021680860D5492068884254D9D349783930
:103540002068884201D1042049E0D04964392068CC
:10355000884201D1402042E0CC495039206888425D
:1035600001D100153BE0C9493C392068884202D1AD
:103570004FF4804033E0C54928392068884202D1A1
:103580004FF480202BE0C14914392068884202D1D1
:103590004FF4800023E0BD492068884201D1C00477
:1035A0001DE0BB492068884201D1042017E0B849DA
:1035B00014312068884201D1402010E0B4492831FC
:1035C0002068884201D1001509E0B1493C312068EA
:1035D000884202D14FF4804001E04FF48020AC4992
:1035E000091F086054E0A94978392068884201D150
:1035F00004204AE0A54964392068884202D140206D
:1036000043E04CE0A14950392068884201D10015BF
:103610003BE09E493C392068884202D14FF480400B
:1036200033E09A4928392068884202D14FF480203B
:103630002BE0964914392068884202D14FF480006B
:1036400023E092492068884201D1C0041DE09049DE
:103650002068884201D1042017E08D491431206888
:10366000884201D1402010E08949283120688842F1
:1036700001D1001509E086493C312068884202D119
:103680004FF4804001E04FF4802080498039486049
:10369000E06A002802D02046E16A8847F4E094F806
:1036A0004010022088402840002871D006F0020017
:1036B0000028FAD02068006800F0200040B9206897
:1036C000006820F00A0021680860012084F82100C9
:1036D0006E492068884254D96C49783920688842FC
:1036E00001D1022049E0694964392068884201D14A
:1036F000202042E0654950392068884201D14015B8
:103700003BE062493C392068884202D14FF40050C6
:1037100033E05E4928392068884202D14FF40030F6
:103720002BE05A4914392068884202D14FF4001026
:1037300023E056492068884201D180041DE05449A5
:103740002068884201D1022017E0514914312068D5
:10375000884201D1202010E04D492831206888425C
:1037600001D1401509E04A493C312068884202D124
:103770004FF4005001E04FF400304549091F086044
:1037800054E0424978392068884202D102204AE058
:1037900057E03E4964392068884201D1202042E048
:1037A0003A4950392068884201D140153BE03749F9
:1037B0003C392068884202D14FF4005033E033494D
:1037C00028392068884202D14FF400302BE02F497D
:1037D00014392068884202D14FF4001023E02B49AD
:1037E0002068884201D180041DE029492068884270
:1037F00001D1022017E0264914312068884201D106
:10380000202010E0224928312068884201D140154B
:1038100009E01F493C312068884202D14FF4005032
:1038200001E04FF4003019498039486000BF0020A2
:1038300084F8200000BFA06A30B32046A16A884700
:1038400022E094F84010082088402840E0B106F0BB
:103850000800C8B12068006820F00E0021680860E8
:1038600094F8401001208840E16B48600120A0637B
:1038700084F8210000BF002084F8200000BF206BE6
:1038800010B12046216B884770BD000080000240C7
:10389000080402400146002209B9012070471E4B6E
:1038A000086898420BD21D4B0868C01A1423B0FB5D
:1038B000F3F08000086419480838C8630AE0164B22
:1038C0000868C01A1423B0FBF3F0800008641248A3
:1038D0000838C863022081F821000868026843F6AE
:1038E000F0708243D1E901031843CB6818430B6998
:1038F00018434B6918438B691843CB69184302433B
:103900000868026000208863012081F821000020FF
:1039100081F8200000BFC1E708040240080002400F
:103920002DE9F04104460D4616461F464FF00008AB
:1039300000BF94F82000012802D10220BDE8F081E8
:10394000012084F8200000BF94F8210001282CD128
:10395000022084F821000020A0632068006820F085
:103960000100216808603B46324629462046FEF7A2
:1039700005FDE06A30B12068006840F00E00216863
:1039800008600BE02068006820F0040021680860EF
:103990002068006840F00A0021680860206800681C
:1039A00040F001002168086006E000BF002084F8B4
:1039B000200000BF4FF002084046BFE72DE9F8475E
:1039C000024600239C467BE14FF0010808FA03F40D
:1039D000D1F8008008EA0400A0427DD1DFF8F4A20B
:1039E000D1F80480A8EB0A09D0453AD014DCB8F12C
:1039F000030F50D009DCB8F1000F31D0B8F1010F3E
:103A00001CD0B8F1020F49D120E0B8F1110F18D045
:103A1000B8F1120F42D11EE0B9F5881F25D006DC9F
:103A2000B9F5803F20D0B9F5801F37D11AE0B9F53C
:103A3000001F18D0B9F5041F30D117E0D1F80CC021
:103A40002DE0D1F80C8008F1040C28E0D1F80C80AE
:103A500008F1080C23E0D1F80C8008F10C0C1EE0F2
:103A600000BF00BF00BF00BF00BF00BFD1F808808B
:103A7000B8F1000F02D14FF0040C0BE0D1F8088030
:103A8000B8F1010F03D14FF0080C146102E04FF0C0
:103A9000080C546103E04FF0000C00E000BF00BFD1
:103AA000FF2801D8904601E002F104084646FF28AD
:103AB00002D84FEA830803E0A3F108084FEA880818
:103AC0004746D6F800804FF00F0909FA07F928EAAF
:103AD00009080CFA07F900E07AE048EA0908C6F894
:103AE0000080D1F8048008F08058B8F1805F6FD171
:103AF00000BFDFF8E481D8F8188048F00108DFF84B
:103B0000D891C9F81880C846D8F8188008F001087C
:103B1000CDF8008000BF00BF4FEAB9384FEA9309E3
:103B200058F829504FEA83784FEA18794FF00F0878
:103B300008FA09F825EA0805DFF8A081424502D114
:103B40004FF0000824E0DFF89881424502D14FF0A1
:103B500001081DE0DFF88C81424502D14FF00208D8
:103B600016E0DFF88481424502D14FF003080FE0F0
:103B7000DFF87881424502D14FF0040808E0DFF811
:103B80007081424502D14FF0050801E04FF0060870
:103B90004FEA83794FEA197908FA09F848EA0505E6
:103BA000DFF850814FEA930948F82950D1F8048092
:103BB00008F48018B8F5801F0BD1DFF83C81D8F8E5
:103BC000008048EA0008DFF83091C9F800800AE078
:103BD00075E0DFF82481D8F8008028EA0008DFF8D3
:103BE0001891C9F80080D1F8048008F40018B8F5DD
:103BF000001F0ED1DFF8008108F10408D8F800801A
:103C000048EA0008DFF8F09009F10409C9F80080DB
:103C10000DE0DFF8E48008F10408D8F8008028EA15
:103C20000008DFF8D49009F10409C9F80080D1F840
:103C3000048008F40038B8F5003F0ED1DFF8B880F2
:103C4000A8F10408D8F8008048EA0008DFF8A89036
:103C5000A9F10409C9F800800DE0DFF89C80A8F103
:103C60000408D8F8008028EA0008DFF88C90A9F151
:103C70000409C9F80080D1F8048008F48038B8F548
:103C8000803F0ED1DFF87080A8F10808D8F80080D6
:103C900048EA0008DFF86090A9F10809C9F8008037
:103CA0000DE0DFF85480A8F10808D8F8008028EA71
:103CB0000008DFF84490A9F10809C9F800805B1CEE
:103CC000D1F8008028FA03F8B8F1000F7FF47CAE39
:103CD000BDE8F88700001110001002400008014004
:103CE000000C014000100140001401400018014088
:103CF000001C01400800014008040140024693688E
:103D00000B400BB1012000E0002070470AB10161B7
:103D100001E00B0403617047014800687047000030
:103D2000A8060020034800680349097808440149AF
:103D300008607047A8060020B006002010B50848AB
:103D4000006840F0100006490860032000F0E2F827
:103D50000F2000F007F800F05FF8002010BD000011
:103D6000002002402DE9F04188B004460027B84603
:103D7000002600BF2348C06940F020002149C861E7
:103D80000846C06900F02000019000BF00BF02A9F2
:103D900003A800F0BDFA069F1FB900F0E1FA05463E
:103DA00002E000F0DDFA45001748B5FBF0F0A0F1A5
:103DB000010816481649086040F2E7311448C1600E
:103DC000C0F80480002101618160816100F046FE3D
:103DD000064696B90E4800F01DFF06466EB937201C
:103DE00000F04AF8102C07D200222146372000F0BC
:103DF00053F80848046000E00126304608B0BDE8EA
:103E0000F08100000010024040420F00001400400A
:103E1000400C0020AC06002008B500BF14488069A3
:103E200040F00100124988610846806900F00100F5
:103E3000009000BF00BF00BF0846C06940F080503E
:103E4000C8610846C06900F08050009000BF00BF04
:103E500000220F21901E00F01FF800BF054948689E
:103E600020F0E06040F00070486000BF08BD000036
:103E7000001002400000014001460846002809DB0E
:103E800000F01F0301229A4043099B0003F1E02345
:103E9000C3F8002100BF70472DE9F05F80460D4652
:103EA0001646002705F0EAFA074639462A46334601
:103EB00001F00700C0F1070ABAF1040F02D94FF070
:103EC000040A01E0C0F1070AD14600F1040ABAF180
:103ED000070F02D24FF0000A01E0A0F1030AD44616
:103EE0004FF0010A0AFA09FAAAF1010A0AEA020ADB
:103EF0000AFA0CFA4FF0010B0BFA0CFBABF1010BB9
:103F00000BEA030B4AEA0B042146404605F0BEFAD1
:103F1000BDE8F09F00BF00F00702064B19684FF69E
:103F2000FF031940044B0B4343EA0221014B196084
:103F300000BF70470CED00E00000FA052DE9F047E6
:103F400006464FF00008002500270024A146042E55
:103F500037D004DC012E3CD0022E6CD160E0082E5C
:103F600033D0102E67D136484468006800F0807066
:103F700008B33448C4F38341475C04F4803078B11B
:103F80002F484068C0F340402F4911F8008004F4E6
:103F9000803040B12D48B0FBF8F000FB07F502E09F
:103FA0002B4807FB00F52648406800F48000B0F578
:103FB000800F01D1A94603E068000321B0FBF1F9AD
:103FC0003AE000F0EDF9814636E000F0E9F981468B
:103FD00032E01B48046A04F44070B0F5807F05D1DC
:103FE00004F0020010B14FF4004918E004F44070EE
:103FF000B0F5007F07D11248406A00F0020010B10E
:1040000049F640490BE004F44070B0F5407F06D11A
:104010000B48006800F4003008B14FF224490BE06F
:1040200000F0AEF906494968C1F38131491C4900E5
:10403000B0FBF1F900E000BF00BF4846BDE8F087E3
:104040000010024056D9000866D9000800127A0014
:1040500000093D00F8B5044600260025207800F050
:10406000010000286BD000274348C06900F0805051
:1040700070B900BF4048C06940F080503E49C861F7
:104080000846C06900F08050009000BF00BF0127C3
:104090003A48006800F48070B0B93848006840F4CD
:1040A000807036490860FFF737FE064606E0FFF7E6
:1040B00033FE801B642801D90320F8BD2F48006817
:1040C00000F480700028F2D02B48006A00F440759C
:1040D0002DB3A08800F44070A84220D02648006A82
:1040E00020F440750120264908600020086022481D
:1040F000056205F0010090B1FFF70EFE064608E0EC
:10410000FFF70AFE801B41F28831884201D9032063
:10411000D3E71948006A00F002000028F0D01648E2
:10412000006A20F440706168084313490862012F57
:1041300004D10846C06920F08050C86100BF2078D3
:1041400000F00200022807D10B48406820F44040EC
:10415000A168084308494860207800F01000102842
:1041600007D10548406820F480006169084302498E
:1041700048600020A1E700000010024000700040ED
:104180004004424270B504460D460CB9012070BD92
:104190005A48006800F00700A8420ED2574800684D
:1041A00020F007002843554908600846006800F0E1
:1041B0000700A84201D00120E9E7207800F00200C2
:1041C00002281DD1207800F00400042805D14C48B5
:1041D000406840F4E0604A494860207800F00800F8
:1041E000082805D14648406840F46050444948607A
:1041F0004348406820F0F000A16808434049486007
:10420000207800F0010078B36068012806D13C48AE
:10421000006800F4003090B90120B8E76068022817
:1042200006D13748006800F0007040B90120AEE7C1
:104230003348006800F0020008B90120A7E73048C1
:10424000406820F00300616808432D494860FFF78B
:1042500063FD064609E0FFF75FFD801B41F28831F0
:10426000884202D9032092E707E02548406800F021
:104270000C006168B0EB810FEDD12048006800F0C0
:104280000700A8420ED91D48006820F00700284307
:104290001A4908600846006800F00700A84201D0EB
:1042A000012074E7207800F00400042807D11448A6
:1042B000406820F4E060E1680843114948602078D4
:1042C00000F00800082808D10D48406820F460502C
:1042D000216940EAC1000A49486000F061F80849D4
:1042E0004968C1F30311074A515CC8400649086098
:1042F00006480068FFF736FD002048E7002002402E
:1043000000100240B4C800080C000020AC060020D9
:104310000F2202600D4A526802F0030242600B4A0B
:10432000526802F0F0028260084A526802F4E062C9
:10433000C260064A526802F46052D2080261044A1E
:10434000126802F007020A60704700000010024085
:104350000020024001480068704700000C00002067
:1043600000B5FFF7F7FF04494968C1F30221034A8A
:10437000515CC84000BD000000100240C4C80008E5
:1043800000B5FFF7E7FF04494968C1F3C221034ABA
:10439000515CC84000BD000000100240C4C80008C5
:1043A00070B500210022002400230020134D69680D
:1043B00001F00C05F5B1042D02D0082D19D101E052
:1043C0000F4819E00F4DC1F38346AB5D01F4803512
:1043D00055B10A4D6D68C5F340450B4E725D084DF1
:1043E0005D43B5FBF2F402E0084D03FB05F4204603
:1043F00002E000BF024800BF00BF70BD00100240D5
:1044000000127A0044D9000854D9000800093D0080
:10441000F8B504460CB90120F8BD207800F0010081
:10442000002878D0F848406800F00C0004280CD030
:10443000F548406800F00C00082811D1F2484068A7
:1044400000F48030B0F5803F0AD1EF48006800F4F6
:10445000003000285FD0606800285CD10120DBE7D5
:1044600000BF6068B0F5803F06D1E748006840F4BF
:104470008030E549086028E0606858B9E248006883
:1044800020F48030E04908600846006820F480206D
:1044900008601AE06068B0F5A02F0BD1DA48006818
:1044A00040F48020D84908600846006840F4803015
:1044B00008600AE0D448006820F48030D2490860DF
:1044C0000846006820F48020086000BF606888B15A
:1044D000FFF722FC054606E0FFF71EFC401B6428A0
:1044E00001D9032098E7C848006800F4003000288C
:1044F000F2D010E0FFF710FC054606E0FFF70CFCD9
:10450000401B642801D9032086E7BF48006800F4F7
:1045100000300028F2D1207800F00200022857D1A4
:10452000B948406800F00C0050B1B748406800F04E
:104530000C00082818D1B448406800F4803098B9BD
:10454000B148006800F0020020B12069012801D0C4
:10455000012061E7AC48006820F0F800616940EA9A
:10456000C100A949086033E02069E8B10120A749EA
:104570000860FFF7D1FB054606E0FFF7CDFB401BC7
:10458000022801D9032047E79F48006800F0020095
:104590000028F2D09C48006820F0F800616940EAE9
:1045A000C1009949086013E0002098490860FFF7AE
:1045B000B3FB054606E0FFF7AFFB401B022801D91D
:1045C000032029E79048006800F002000028F2D19B
:1045D000207800F0080008282DD1A069B8B101208A
:1045E0008B490860FFF798FB054606E0FFF794FB50
:1045F000401B022801D903200EE78348406A00F0DF
:1046000002000028F2D0012001F092FD13E000200A
:104610007F490860FFF780FB054606E0FFF77CFB5B
:10462000401B022801D90320F6E67748406A00F0D3
:1046300002000028F2D1207800F00400042873D191
:1046400000277148C06900F0805070B900BF6E4803
:10465000C06940F080506C49C8610846C06900F0EC
:104660008050009000BF00BF01276A48006800F436
:104670008070B0B96748006840F480706549086090
:10468000FFF74AFB054606E0FFF746FB401B6428A0
:1046900001D90320C0E65F48006800F4807000285C
:1046A000F2D000BFE068012806D15748006A40F008
:1046B00001005549086227E0E06858B95248006A8D
:1046C00020F00100504908620846006A20F004000A
:1046D000086219E0E06805280BD14B48006A40F0F9
:1046E0000400494908620846006A40F00100086277
:1046F0000AE04548006A20F0010043490862084684
:10470000006A20F00400086200BFE068A0B1FFF773
:1047100003FB054609E0FFF7FFFA401B41F2883131
:10472000884202D9032077E622E03748006A00F089
:1047300002000028EFD012E0FFF7EEFA054608E08D
:10474000FFF7EAFA401B41F28831884201D9032081
:1047500062E62D48006A00F002000028F0D1012F27
:1047600005D12948C06920F080502749C86100BFA1
:10477000E069C8B32448406800F00C00082860D005
:10478000E069022848D1002020490866FFF7C4FAF2
:10479000054606E0FFF7C0FA401B022801D90320B6
:1047A0003AE61948006800F000700028F2D1206A4B
:1047B000B0F5803F07D11448406820F40030A1686C
:1047C000084311494860D4E9080108430E49496883
:1047D00021F4741108430C49486001200B49086614
:1047E000FFF79AFA054607E03DE0FFF795FA401B10
:1047F000022801D903200FE60348006800F000708A
:104800000028F2D02FE000000010024000004242D9
:104810008004424200700040002014490866FFF7FF
:104820007BFA054606E0FFF777FA401B022801D91C
:104830000320F1E50E48006800F000700028F2D176
:1048400011E0E069012800D1E6E50948466806F470
:104850008031206A814204D106F47011606A81427D
:1048600001D00120D8E50020D6E50000000042423A
:104870000010024010B504460CB9012010BD606A5A
:1048800038B96068B0F5827F00D105E00021E161B0
:1048900002E00021216161610021A16294F85100D0
:1048A00028B9002084F85000204600F043F8022088
:1048B00084F851002068006820F0400021680860FA
:1048C000A08800F48270218901F404410843A18981
:1048D00001F400610843217C01F002010843217DBD
:1048E00001F001010843218B01F400710843217F8D
:1048F00001F0380108432021095D01F080010843DF
:10490000218D01F400510843216808600421A06949
:1049100001EA1040216848602068C06920F4006006
:104920002168C86100206065012084F851000020E2
:10493000A4E7000010B586B0044600200290039062
:10494000049005901A49206888422FD100BF194869
:10495000C06940F480401749C8610846C06900F446
:104960008040019000BF00BF00BF0846806940F052
:10497000080088610846806900F00800019000BFC7
:1049800000BF4FF4204002900220039003200590C6
:1049900002A90948FFF712F84FF480400290002066
:1049A0000390049002A90448FFF708F806B010BD70
:1049B0000038004000100240000C01407047704772
:1049C00030B502460B4600BF92F83C00012801D1E9
:1049D000022030BD012082F83C0000BF022082F896
:1049E0003D00106844681068816824F070041868FD
:1049F000044310684460144D1068A84213D0134D4E
:104A00001068A8420FD01068B0F1804F0BD0104D45
:104A10001068A84207D00F4D1068A84203D00E4D71
:104A20001068A84205D121F0800158680143106840
:104A30008160012082F83D0000BF002082F83C0028
:104A400000BF00BFC5E70000002C0140003401405A
:104A50000004004000080040000C004010B504466F
:104A60000CB9012010BD94F83D0028B9002084F84D
:104A70003C00204600F026F8022084F83D00211D6D
:104A8000206801F0A1FC012084F8460000BF84F8F2
:104A90003E0001213F200155402001554120015594
:104AA00000BF00BF012084F842004320015544208C
:104AB00001554520015500BF012084F83D0000202C
:104AC000D0E7000038B504462D492068884216D149
:104AD00000BF2C48806940F400602A49886108467C
:104AE000806900F40060009000BF00BF0022062132
:104AF0001920FFF7D1F91920FFF7BEF93EE0206831
:104B0000B0F1804F16D100BF1E48C06940F00100CF
:104B10001C49C8610846C06900F00100009000BF50
:104B200000BF002206211C20FFF7B6F91C20FFF76A
:104B3000A3F923E01449206888420DD100BF114831
:104B4000C06940F008000F49C8610846C06900F01C
:104B50000800009000BF11E00C49206888420DD188
:104B600000BF0848806940F4005006498861084643
:104B7000806900F40050009000BF00BF38BD000005
:104B8000002C014000100240000C004000340140A5
:104B9000014691F83D00012801D001207047022014
:104BA00081F83D00164B0868984213D0154B0868F1
:104BB00098420FD00868B0F1804F0BD0124B0868B4
:104BC000984207D0114B0868984203D0104B0868F0
:104BD00098420CD10868806800F00702062A0CD0C1
:104BE0000868006840F001000B68186005E008687C
:104BF000006840F001000B6818600020CEE700005C
:104C0000002C014000340140000400400008004036
:104C1000000C0040014691F83D00012801D0012020
:104C20007047022081F83D000868C06840F001002C
:104C30000B68D860164B0868984213D0154B08686B
:104C400098420FD00868B0F1804F0BD0124B086823
:104C5000984207D0114B0868984203D0104B08685F
:104C600098420CD10868806800F00702062A0CD030
:104C70000868006840F001000B68186005E00868EB
:104C8000006840F001000B6818600020C8E70000D1
:104C9000002C0140003401400004004000080040A6
:104CA000000C0040014600BF0868006A41F2111282
:104CB000104050B90868006A9210104028B908687E
:104CC000006820F001000A68106000BF012081F830
:104CD0003D00002070472DE9F04104460D460027B5
:104CE00000BF94F83C00012802D10220BDE8F08109
:104CF000012084F83C0000BF022084F83D002068B9
:104D0000866826F0770626F47F4620688660286845
:104D1000502833D00CDC202850D004DC00284BD0A5
:104D2000102851D149E0302849D040284CD139E0F1
:104D300060282DD0702807D0B0F5805F03D0B0F583
:104D4000005F41D10DE041E0D5E902136A682068B7
:104D500001F088FB2068866846F077062068866048
:104D600034E0D5E902136A68206801F07BFB206813
:104D7000806840F480402168886027E0EA686968BC
:104D8000206801F05FFC5021206801F076FB1DE0F7
:104D9000EA686968206801F068FC6021206801F019
:104DA0006CFB13E0EA686968206801F04BFC402165
:104DB000206801F062FB09E000BF00BF00BF296866
:104DC000206801F05AFB01E0012700BF00BF01206D
:104DD00084F83D0000BF002084F83C0000BF384646
:104DE00084E7704710B5044620680069C0F34000AE
:104DF000D8B12068C068C0F34000B0B16FF00200C5
:104E000021680861012020772068806900F0030094
:104E100018B12046FFF7E5FF05E0204600F0DAF87C
:104E2000204600F08EF90020207720680069C0F34A
:104E30008000D8B12068C068C0F38000B0B16FF0C6
:104E4000040021680861022020772068806900F44E
:104E5000407018B12046FFF7C4FF05E0204600F07F
:104E6000B9F8204600F06DF900202077206800692D
:104E7000C0F3C000D8B12068C068C0F3C000B0B1B2
:104E80006FF0080021680861042020772068C0695D
:104E900000F0030018B12046FFF7A3FF05E020460D
:104EA00000F098F8204600F04CF9002020772068A8
:104EB0000069C0F30010D8B12068C068C0F30010CA
:104EC000B0B16FF0100021680861082020772068D9
:104ED000C06900F4407018B12046FFF782FF05E07A
:104EE000204600F077F8204600F02BF900202077CC
:104EF0002068006900F0010058B12068C06800F027
:104F0000010030B16FF0010021680861204600F017
:104F100019F920680069C0F3C01058B12068C06852
:104F2000C0F3C01030B16FF08000216808612046E6
:104F3000FFF744FD20680069C0F3801058B1206875
:104F4000C068C0F3801030B16FF040002168086184
:104F5000204600F003F920680069C0F3401058B102
:104F60002068C068C0F3401030B16FF020002168A5
:104F700008612046FFF723FD10BD000010B586B084
:104F80000446002002900390049005900E4920688A
:104F9000884216D100BF0D48806940F004000B49DB
:104FA00088610846806900F00400019000BF00BFDE
:104FB0000320029002200390059002A90448FEF706
:104FC000FDFC06B010BD0000000C004000100240C7
:104FD0000008014070472DE9F04104460D46164691
:104FE000002700BF94F83C00012802D10220BDE850
:104FF000F081012084F83C0000BF36B1042E1BD0A4
:10500000082E31D00C2E5ED145E02946206801F0F3
:105010003DFA2068806940F00800216888612068B6
:10502000806920F00400216888612068806929690E
:1050300008432168886148E02946206801F05EFA4B
:105040002068806940F40060216888612068806978
:1050500020F480602168886120688069296940EABD
:1050600001202168886130E02946206801F084FA37
:105070002068C06940F008002168C8612068C069E4
:1050800020F004002168C8612068C06929690843CC
:105090002168C86119E02946206801F0A9FA206852
:1050A000C06940F400602168C8612068C06920F4CC
:1050B00080602168C8612068C069296940EA0120D0
:1050C0002168C86101E0012700BF00BF00BF0020C8
:1050D00084F83C0000BF384689E710B504460CB997
:1050E000012010BD94F83D0028B9002084F83C0050
:1050F000204600F025F8022084F83D00211D20689C
:1051000001F062F9012084F8460000BF84F83E00F7
:1051100001213F200155402001554120015500BF8C
:1051200000BF012084F8420043200155442001556E
:105130004520015500BF012084F83D000020D0E744
:105140007047704710B5044603492068884201D172
:10515000FEF7E8FD10BD00000014004070477047E6
:1051600070B50446002520684069C0F3C01594F866
:105170004100212817D1B5B100BF00BF216814310B
:1051800051E8001F21F080002168143141E800023D
:10519000002AF3D100BFA06B10B1A06BFEF7AFF8EF
:1051A000204601F0B6FB20684069C0F3801594F8F2
:1051B0004200222817D1B5B100BF00BF21681431C9
:1051C00051E8001F21F040002168143141E800023D
:1051D000002AF3D100BFE06B10B1E06BFEF78FF84F
:1051E000204601F050FB002070BD70472DE9F84FBC
:1051F0000446206805682068C668206847694FF043
:105200000009CA4605F00F09B9F1000F0AD105F0EF
:10521000200038B106F0200020B1204601F08CFBC0
:10522000BDE8F88FB9F1000F7BD007F0010018B985
:1052300006F49070002874D005F0010030B106F437
:10524000807018B1606C40F00100606405F00400EB
:1052500030B107F0010018B1606C40F002006064EA
:1052600005F0020030B107F0010018B1606C40F0A9
:105270000400606405F0080048B106F0200010B991
:1052800007F0010018B1606C40F008006064606CC9
:10529000002845D005F0200028B106F0200010B10C
:1052A000204601F049FB20684069C0F3801A606C19
:1052B00000F0080010B9BAF1000F2CD0204601F020
:1052C000E2FA2068406900F0400000B300BF00BF70
:1052D0002168143151E8001F21F040002168143189
:1052E00041E80002002AF3D100BFE06B50B17748DB
:1052F000E16B4863E06BFEF72DF888B1E06B416B22
:1053000088470DE02046FFF770FF09E009E02046DE
:10531000FFF76BFF04E02046FFF767FF00206064A3
:105320007EE7206B012877D105F01000002873D0AC
:1053300006F010000028FAD000BF0020009020687E
:105340000068009020684068009000BF00BF20689F
:10535000406900F0400000285FD0E06B00684068C2
:105360001FFA80F8B8F1000F55D0A08D404552DDEE
:10537000A4F82E80E06B8069202843D000BF00BFD6
:1053800021680C3151E8001F21F4807021680C3134
:1053900041E80002002AF3D100BF00BF00BF21682E
:1053A000143151E8001F21F001002168143141E857
:1053B0000002002AF3D100BF00BF00BF21681431F2
:1053C00051E8001F21F040002168143141E800023B
:1053D000002AF3D100BF202084F84200002020637F
:1053E00000BF00BF21680C3151E8001F21F0100000
:1053F00021680C3141E80002002AF3D100BFE06BC4
:10540000FDF77DFF02206063A08DE28D801A81B2DE
:105410002046FFF7A4FE03E742E0A08DE18D401A8D
:105420001FFA80F8E08DD0B3B8F1000F37D000BF7D
:1054300000BF21680C3151E8001F21F490702168F1
:105440000C3141E80002002AF3D100BF00BF00BFC9
:105450002168143151E8001F21F001002168143146
:1054600041E80002002AF3D100BF202084F8420066
:105470000020206300BF00BF21680C3151E8001FED
:1054800021F0100021680C3141E80002002AF3D11C
:1054900000BF0220606341462046FFF760FEBFE682
:1054A00005F0800030B106F0800018B1204601F010
:1054B000A3FBB5E605F0400030B106F0400018B19E
:1054C000204601F016FAABE600BFA9E6E566000843
:1054D00010B504460CB9012010BDA06900B100E070
:1054E00000BF94F8410028B9002084F8400020460D
:1054F00000F02AF8242084F841002068C06820F4D5
:1055000000502168C860204601F094FA20680069C4
:1055100020F49040216808612068406920F02A004A
:10552000216848612068C06840F400502168C86064
:1055300000206064202084F8410084F842000020AC
:10554000606300BFC8E7000010B586B004460020C5
:105550000290039004900590F0492068884252D14F
:1055600000BFEF48C06940F40020ED49C86108461B
:10557000C06900F40020019000BF00BF00BF0846D2
:10558000806940F0100088610846806900F01000D2
:10559000019000BF00BF0815029002200390032075
:1055A000059002A9DF48FEF709FA4FF40060029067
:1055B00000200390049002A9DA48FEF7FFF9DA48C8
:1055C000DA490860002048600021D84881608021C5
:1055D000C160002101614161202181610021C1611F
:1055E000FEF758F908B1FCF7E0FE00BFCF48E063D2
:1055F000446200BF002205213420FEF74DFC342018
:10560000FEF73AFC88E1CA492068884243D100BFCE
:10561000C348C06940F48010C149C8610846C069E8
:1056200000F48010019000BF00BF00BF08468069F1
:1056300040F0100088610846806900F01000019079
:1056400000BF00BF00BF0846806940F020008861AD
:105650000846806900F02000019000BF00BF881458
:105660000290022003900320059002A9AD48FEF7A6
:10567000A5F90420029000200390049002A9AD48EF
:10568000FEF79CF9002206213520FEF705FC3520A7
:10569000FEF7F2FB40E1A849206888425AD100BFDA
:1056A0009F48806940F480409D4988610846806930
:1056B00000F48040019000BF00BF00BF0846806931
:1056C00040F0080088610846806900F008000190F9
:1056D00000BF00BF402002900220039003200590ED
:1056E00002A99648FEF76AF98020029000200390F4
:1056F000049002A99148FEF761F900BF90494868FB
:1057000040F0E06040F00400486000BF8D488E49E2
:1057100008600020486000218B4881608021C160C2
:10572000002101614161202181610021C161FEF7F9
:10573000B1F808B1FCF739FE00BF8348E06344626A
:1057400000BF002206212520FEF7A6FB2520FEF73C
:1057500093FBE1E07D49206888426CD100BF70482E
:10576000C06940F400306E49C8610846C06900F461
:105770000030019000BF00BF00BF0846806940F0C4
:10578000040088610846806900F00400019000BFB1
:1057900000BF04200290022003900320059002A97C
:1057A0006B48FEF70BF9082002900020039004904C
:1057B00002A96748FEF702F962481430654908609B
:1057C000002048600021634881608021C160002181
:1057D00001614161202181610021C161FEF75AF818
:1057E00008B1FCF7E2FD00BF5A48E063446200BF25
:1057F0005448283058490860102048600021564815
:1058000081608021C1600021016141618161C161CC
:10581000FEF740F808B1FCF7C8FD00BF4E48A06392
:10582000446200BF002206212620FEF735FB262019
:10583000FEF722FB70E04949206888426CD100BF26
:105840003748C06940F480203549C8610846C069BE
:1058500000F48020019000BF00BF00BF08468069AF
:1058600040F0080088610846806900F00800019057
:1058700000BF00BF0815029002200390032005908E
:1058800002A92E48FEF79AF84FF40060029000201B
:105890000390049002A92948FEF790F82948283877
:1058A0002F4908600020486000212D488160802138
:1058B000C160002101614161202181610021C1613C
:1058C000FDF7E8FF08B1FCF770FD00BF2448E06376
:1058D000446200BF1B483C382249086010204860E1
:1058E0000021204881608021C16000210161416167
:1058F0008161C161FDF7CEFF08B1FCF756FD00BF25
:105900001848A063446200BF002206212720FEF74A
:10591000C3FA2720FEF7B0FA06B010BD004C0040D5
:10592000001002400010014030040240A80A00208C
:10593000005000400014014000380140000C0140BC
:105940000000014058000240EC0A002000440040E2
:1059500000080140300B0020740B0020004800407C
:10596000B80B0020FC0B002070B504460D4616460F
:1059700094F8420020280BD105B10EB9012070BD6A
:105980000020206332462946204601F0D1F8F6E790
:105990000220F4E770477047F7B50446154694F8BF
:1059A0004100202836D1019800B10DB90120FEBD7B
:1059B00001982062A584E58400206064212084F899
:1059C00041001548A16B88621448A16BC862144855
:1059D000A16B08630020A16B486301AE23681A1D08
:1059E00031682B46A06BFDF79BFF6FF040002168EC
:1059F000086000BF00BF2168143151E8001F41F06A
:105A000080002168143141E80002002AF3D100BF70
:105A10000020CCE70220CAE7216800087968000866
:105A2000F96600087047704700BFFEE770B505468D
:105A30000C462146284606F0D3FD01D2204670BD13
:105A400084F000462946304606F0CAFD02D284F0B2
:105A50000040F4E72846F2E70EB5002000900190E0
:105A60000290234823490860811522488160012162
:105A70000173002101754FF46021C16100201D49AF
:105A8000486004211B480161FCF7D4FD08B1FCF714
:105A90008CFC0820009001200190072002906946AC
:105AA0001448FCF713FD08B1FCF77FFC09200090B7
:105AB0000220019069460F48FCF708FD08B1FCF789
:105AC00074FC0E2000900320019069460948FCF701
:105AD000FDFC08B1FCF769FC0F2000900420019048
